{
  "contractName": "RockPaperScissors",
  "abi": [
    {
      "constant": false,
      "inputs": [
        {
          "name": "_player",
          "type": "address"
        },
        {
          "name": "_fund",
          "type": "uint256"
        }
      ],
      "name": "setPlayer",
      "outputs": [
        {
          "name": "success",
          "type": "bool"
        }
      ],
      "payable": false,
      "stateMutability": "nonpayable",
      "type": "function"
    },
    {
      "constant": false,
      "inputs": [
        {
          "name": "sender",
          "type": "address"
        },
        {
          "name": "receiver",
          "type": "address"
        },
        {
          "name": "amount",
          "type": "uint256"
        }
      ],
      "name": "sendCoin",
      "outputs": [
        {
          "name": "sufficient",
          "type": "bool"
        }
      ],
      "payable": false,
      "stateMutability": "nonpayable",
      "type": "function"
    },
    {
      "constant": false,
      "inputs": [
        {
          "name": "_dealer",
          "type": "address"
        },
        {
          "name": "_fund",
          "type": "uint256"
        }
      ],
      "name": "setDealer",
      "outputs": [
        {
          "name": "success",
          "type": "bool"
        }
      ],
      "payable": false,
      "stateMutability": "nonpayable",
      "type": "function"
    },
    {
      "constant": true,
      "inputs": [],
      "name": "player",
      "outputs": [
        {
          "name": "",
          "type": "address"
        }
      ],
      "payable": false,
      "stateMutability": "view",
      "type": "function"
    },
    {
      "constant": true,
      "inputs": [
        {
          "name": "addr",
          "type": "address"
        }
      ],
      "name": "getBalanceInEth",
      "outputs": [
        {
          "name": "",
          "type": "uint256"
        }
      ],
      "payable": false,
      "stateMutability": "view",
      "type": "function"
    },
    {
      "constant": true,
      "inputs": [],
      "name": "playerFund",
      "outputs": [
        {
          "name": "",
          "type": "uint256"
        }
      ],
      "payable": false,
      "stateMutability": "view",
      "type": "function"
    },
    {
      "constant": true,
      "inputs": [],
      "name": "owner",
      "outputs": [
        {
          "name": "",
          "type": "address"
        }
      ],
      "payable": false,
      "stateMutability": "view",
      "type": "function"
    },
    {
      "constant": true,
      "inputs": [],
      "name": "dealerFund",
      "outputs": [
        {
          "name": "",
          "type": "uint256"
        }
      ],
      "payable": false,
      "stateMutability": "view",
      "type": "function"
    },
    {
      "constant": true,
      "inputs": [
        {
          "name": "amount",
          "type": "uint256"
        },
        {
          "name": "conversionRate",
          "type": "uint256"
        }
      ],
      "name": "convert",
      "outputs": [
        {
          "name": "convertedAmount",
          "type": "uint256"
        }
      ],
      "payable": false,
      "stateMutability": "pure",
      "type": "function"
    },
    {
      "constant": true,
      "inputs": [],
      "name": "dealer",
      "outputs": [
        {
          "name": "",
          "type": "address"
        }
      ],
      "payable": false,
      "stateMutability": "view",
      "type": "function"
    },
    {
      "constant": false,
      "inputs": [
        {
          "name": "dealerAction",
          "type": "uint256"
        },
        {
          "name": "playerAction",
          "type": "uint256"
        },
        {
          "name": "bettingAmount",
          "type": "uint256"
        }
      ],
      "name": "compare",
      "outputs": [
        {
          "name": "results",
          "type": "string"
        }
      ],
      "payable": false,
      "stateMutability": "nonpayable",
      "type": "function"
    },
    {
      "constant": true,
      "inputs": [
        {
          "name": "addr",
          "type": "address"
        }
      ],
      "name": "getBalance",
      "outputs": [
        {
          "name": "",
          "type": "uint256"
        }
      ],
      "payable": false,
      "stateMutability": "view",
      "type": "function"
    },
    {
      "inputs": [],
      "payable": false,
      "stateMutability": "nonpayable",
      "type": "constructor"
    },
    {
      "anonymous": false,
      "inputs": [
        {
          "indexed": false,
          "name": "winner",
          "type": "string"
        },
        {
          "indexed": false,
          "name": "amount",
          "type": "uint256"
        }
      ],
      "name": "GameState",
      "type": "event"
    },
    {
      "anonymous": false,
      "inputs": [
        {
          "indexed": false,
          "name": "winner",
          "type": "address"
        },
        {
          "indexed": false,
          "name": "amount",
          "type": "uint256"
        }
      ],
      "name": "GameEnded",
      "type": "event"
    },
    {
      "anonymous": false,
      "inputs": [
        {
          "indexed": true,
          "name": "_from",
          "type": "address"
        },
        {
          "indexed": true,
          "name": "_to",
          "type": "address"
        },
        {
          "indexed": false,
          "name": "_value",
          "type": "uint256"
        }
      ],
      "name": "Transfer",
      "type": "event"
    }
  ],
  "bytecode": "0x6060604052341561000f57600080fd5b336000806101000a81548173ffffffffffffffffffffffffffffffffffffffff021916908373ffffffffffffffffffffffffffffffffffffffff160217905550610f048061005e6000396000f3006060604052600436106100ba576000357c0100000000000000000000000000000000000000000000000000000000900463ffffffff168063014892a4146100bf5780630b40bd88146101195780631207ca521461019257806348db5f89146101ec5780637bd703e8146102415780638410315b1461028e5780638da5cb5b146102b757806391d2dc481461030c57806396e4ee3d146103355780639de2ee2114610375578063f731955d146103ca578063f8b2cb4f14610478575b600080fd5b34156100ca57600080fd5b6100ff600480803573ffffffffffffffffffffffffffffffffffffffff169060200190919080359060200190919050506104c5565b604051808215151515815260200191505060405180910390f35b341561012457600080fd5b610178600480803573ffffffffffffffffffffffffffffffffffffffff1690602001909190803573ffffffffffffffffffffffffffffffffffffffff16906020019091908035906020019091905050610578565b604051808215151515815260200191505060405180910390f35b341561019d57600080fd5b6101d2600480803573ffffffffffffffffffffffffffffffffffffffff169060200190919080359060200190919050506106d5565b604051808215151515815260200191505060405180910390f35b34156101f757600080fd5b6101ff610788565b604051808273ffffffffffffffffffffffffffffffffffffffff1673ffffffffffffffffffffffffffffffffffffffff16815260200191505060405180910390f35b341561024c57600080fd5b610278600480803573ffffffffffffffffffffffffffffffffffffffff169060200190919050506107ae565b6040518082815260200191505060405180910390f35b341561029957600080fd5b6102a16107ca565b6040518082815260200191505060405180910390f35b34156102c257600080fd5b6102ca6107d0565b604051808273ffffffffffffffffffffffffffffffffffffffff1673ffffffffffffffffffffffffffffffffffffffff16815260200191505060405180910390f35b341561031757600080fd5b61031f6107f5565b6040518082815260200191505060405180910390f35b341561034057600080fd5b61035f60048080359060200190919080359060200190919050506107fb565b6040518082815260200191505060405180910390f35b341561038057600080fd5b610388610808565b604051808273ffffffffffffffffffffffffffffffffffffffff1673ffffffffffffffffffffffffffffffffffffffff16815260200191505060405180910390f35b34156103d557600080fd5b6103fd600480803590602001909190803590602001909190803590602001909190505061082e565b6040518080602001828103825283818151815260200191508051906020019080838360005b8381101561043d578082015181840152602081019050610422565b50505050905090810190601f16801561046a5780820380516001836020036101000a031916815260200191505b509250505060405180910390f35b341561048357600080fd5b6104af600480803573ffffffffffffffffffffffffffffffffffffffff16906020019091905050610e7b565b6040518082815260200191505060405180910390f35b600082600260006101000a81548173ffffffffffffffffffffffffffffffffffffffff021916908373ffffffffffffffffffffffffffffffffffffffff1602179055508160066000600260009054906101000a900473ffffffffffffffffffffffffffffffffffffffff1673ffffffffffffffffffffffffffffffffffffffff1673ffffffffffffffffffffffffffffffffffffffff168152602001908152602001600020819055506001905092915050565b600081600660008673ffffffffffffffffffffffffffffffffffffffff1673ffffffffffffffffffffffffffffffffffffffff1681526020019081526020016000205410156105ca57600090506106ce565b81600660008673ffffffffffffffffffffffffffffffffffffffff1673ffffffffffffffffffffffffffffffffffffffff1681526020019081526020016000206000828254039250508190555081600660008573ffffffffffffffffffffffffffffffffffffffff1673ffffffffffffffffffffffffffffffffffffffff168152602001908152602001600020600082825401925050819055508273ffffffffffffffffffffffffffffffffffffffff168473ffffffffffffffffffffffffffffffffffffffff167fddf252ad1be2c89b69c2b068fc378daa952ba7f163c4a11628f55a4df523b3ef846040518082815260200191505060405180910390a3600190505b9392505050565b600082600160006101000a81548173ffffffffffffffffffffffffffffffffffffffff021916908373ffffffffffffffffffffffffffffffffffffffff1602179055508160066000600160009054906101000a900473ffffffffffffffffffffffffffffffffffffffff1673ffffffffffffffffffffffffffffffffffffffff1673ffffffffffffffffffffffffffffffffffffffff168152602001908152602001600020819055506001905092915050565b600260009054906101000a900473ffffffffffffffffffffffffffffffffffffffff1681565b60006107c36107bc83610e7b565b60016107fb565b9050919050565b60045481565b6000809054906101000a900473ffffffffffffffffffffffffffffffffffffffff1681565b60035481565b6000818302905092915050565b600160009054906101000a900473ffffffffffffffffffffffffffffffffffffffff1681565b610836610ec4565b600083851415610924576040805190810160405280601181526020017f546965642c20706c617920616761696e2e00000000000000000000000000000081525091507f8636accafe6e543252248bfbd3f92b39b3f233272c8670fda09bb18edb80e2f582846040518080602001838152602001828103825284818151815260200191508051906020019080838360005b838110156108e15780820151818401526020810190506108c6565b50505050905090810190601f16801561090e5780820380516001836020036101000a031916815260200191505b50935050505060405180910390a1819150610e73565b6000905060008514156109c357600184141561097b576040805190810160405280600b81526020017f506c6179657220776f6e210000000000000000000000000000000000000000008152509150600190506109be565b60028414156109bd576040805190810160405280600b81526020017f4465616c657220776f6e2100000000000000000000000000000000000000000081525091505b5b610af7565b6001851415610a5e576000841415610a12576040805190810160405280600b81526020017f4465616c657220776f6e210000000000000000000000000000000000000000008152509150610a59565b6002841415610a58576040805190810160405280600b81526020017f506c6179657220776f6e210000000000000000000000000000000000000000008152509150600190505b5b610af6565b6002851415610af5576000841415610ab1576040805190810160405280600b81526020017f506c6179657220776f6e21000000000000000000000000000000000000000000815250915060019050610af4565b6001841415610af3576040805190810160405280600b81526020017f4465616c657220776f6e2100000000000000000000000000000000000000000081525091505b5b5b5b5b7f8636accafe6e543252248bfbd3f92b39b3f233272c8670fda09bb18edb80e2f582846040518080602001838152602001828103825284818151815260200191508051906020019080838360005b83811015610b60578082015181840152602081019050610b45565b50505050905090810190601f168015610b8d5780820380516001836020036101000a031916815260200191505b50935050505060405180910390a18015610d0a57610bf0600160009054906101000a900473ffffffffffffffffffffffffffffffffffffffff16600260009054906101000a900473ffffffffffffffffffffffffffffffffffffffff1685610578565b15610bfa57610d05565b6001600560006101000a81548160ff0219169083151502179055506040805190810160405280601681526020017f4465616c657220676f742062616e6b727570746564210000000000000000000081525091507fd4ba6fec82d9b0e8ffe50b9fed9e4be3b25c984ce1e0e016405a5528726e8a2c600260009054906101000a900473ffffffffffffffffffffffffffffffffffffffff16610cbc600260009054906101000a900473ffffffffffffffffffffffffffffffffffffffff166107ae565b604051808373ffffffffffffffffffffffffffffffffffffffff1673ffffffffffffffffffffffffffffffffffffffff1681526020018281526020019250505060405180910390a15b610e6f565b610d59600260009054906101000a900473ffffffffffffffffffffffffffffffffffffffff16600160009054906101000a900473ffffffffffffffffffffffffffffffffffffffff1685610578565b15610d6357610e6e565b6001600560006101000a81548160ff0219169083151502179055506040805190810160405280601681526020017f506c6179657220676f742062616e6b727570746564210000000000000000000081525091507fd4ba6fec82d9b0e8ffe50b9fed9e4be3b25c984ce1e0e016405a5528726e8a2c600160009054906101000a900473ffffffffffffffffffffffffffffffffffffffff16610e25600160009054906101000a900473ffffffffffffffffffffffffffffffffffffffff166107ae565b604051808373ffffffffffffffffffffffffffffffffffffffff1673ffffffffffffffffffffffffffffffffffffffff1681526020018281526020019250505060405180910390a15b5b8191505b509392505050565b6000600660008373ffffffffffffffffffffffffffffffffffffffff1673ffffffffffffffffffffffffffffffffffffffff168152602001908152602001600020549050919050565b6020604051908101604052806000815250905600a165627a7a72305820512ad92623495d8900fb1faed2364e0dd75f0865f576f376df638bc1dfffad430029",
  "source": "pragma solidity ^0.4.17;\n\ncontract RockPaperScissors {\n  // Parameters of the game.\n  address public owner;\n  address public dealer;\n  address public player;\n\n  uint public dealerFund;\n  uint public playerFund;\n\n  // Set to true at the end, disallows any change\n  bool ended;\n\n  // Events that will be fired on changes.\n  event GameState(string winner, uint amount);\n  event GameEnded(address winner, uint amount);\n\n  // for MetaCoin\n  mapping (address => uint) balances;\n\tevent Transfer(address indexed _from, address indexed _to, uint256 _value);\n\n  /// Create a RockPaperScissors game auction with `_dealer` and `_player` and\n  /// their initial fund are `_dealerFund` and `_playerFund`.\n  function RockPaperScissors() public {\n    owner = msg.sender;\n  }\n\n  function setDealer(address _dealer, uint _fund) public returns (bool success) {\n    dealer = _dealer;\n    balances[dealer] = _fund;\n    return true;\n  }\n\n  function setPlayer(address _player, uint _fund) public returns (bool success) {\n    player = _player;\n    balances[player] = _fund;\n    return true;\n  }\n\n  /// compare actions to determine winner\n  /// 0: rock, 1: paper, 2: scissor\n  function compare(uint dealerAction, uint playerAction, uint bettingAmount) public returns (string results){\n    if (dealerAction == playerAction) {\n      results = 'Tied, play again.';\n      GameState(results, bettingAmount);\n      return results;\n    }\n\n    // dtermine who is winner.\n    bool isPlayerWinner = false;\n    if (dealerAction == 0) {\n      if (playerAction == 1) {\n        results = 'Player won!';\n        isPlayerWinner = true;\n      } else if (playerAction == 2) {\n        results = 'Dealer won!';\n      }\n    } else if (dealerAction == 1) {\n      if (playerAction == 0) {\n        results = 'Dealer won!';\n      } else if (playerAction == 2) {\n        results = 'Player won!';\n        isPlayerWinner = true;\n      }\n    } else if (dealerAction == 2) {\n      if (playerAction == 0) {\n        results = 'Player won!';\n        isPlayerWinner = true;\n      } else if (playerAction == 1) {\n        results = 'Dealer won!';\n      }\n    }\n\n    GameState(results, bettingAmount);\n\n    // send betting amount\n    if (isPlayerWinner) {\n      if(sendCoin(dealer, player, bettingAmount)) {\n        // continue game\n      } else {\n        // end of game\n        ended = true;\n        results = 'Dealer got bankrupted!';\n        GameEnded(player, getBalanceInEth(player));\n      }\n    } else {\n      if (sendCoin(player, dealer, bettingAmount)) {\n        // continue game\n      } else {\n        // end of game\n        ended = true;\n        results = 'Player got bankrupted!';\n\n        GameEnded(dealer, getBalanceInEth(dealer));\n      }\n    }\n\n    return results;\n  }\n\n  function sendCoin(address sender, address receiver, uint amount) public returns(bool sufficient) {\n    if (balances[sender] < amount) return false;\n    balances[sender] -= amount;\n    balances[receiver] += amount;\n    Transfer(sender, receiver, amount);\n    return true;\n  }\n\n  function getBalanceInEth(address addr) public view returns(uint){\n    return convert(getBalance(addr), 1);\n  }\n\n  function convert(uint amount,uint conversionRate) public pure returns (uint convertedAmount)\n\t{\n\t\treturn amount * conversionRate;\n\t}\n\n  function getBalance(address addr) public view returns(uint) {\n    return balances[addr];\n  }\n}\n",
  "sourcePath": "/Users/shlee/dvlp/dApp/4Game/rock-paper-scissors-dapp/contracts/RockPaperScissors.sol",
  "compiler": {
    "name": "solc",
    "version": "0.4.18+commit.9cf6e910.Emscripten.clang"
  },
  "schemaVersion": "1.0.1",
  "updatedAt": "2018-04-06T11:58:13.671Z"
}